:100000000C942D010C944A010C944A010C944A0161
:100010000C944A010C944A010C944A010C944A0134
:100020000C944A010C944A010C944A010C944A0124
:100030000C944A010C944A010C944A010C944A0114
:100040000C944A010C944A010C944A010C944A0104
:100050000C944A010C944A010C944A010C944A01F4
:100060000C944A010C944A010000000000818118A0
:1000700081810007000700147F147F14242A7F2A3F
:10008000122313086462364955225000050300000C
:10009000001C2241000041221C0014083E081408E4
:1000A000083E0808005030000008080808080060F2
:1000B00060000020100804023E5149453E00427F86
:1000C000400042615149462141454B311814127F8D
:1000D0001027454545393C4A494930017109050316
:1000E0003649494936064949291E0036360000007E
:1000F0005636000008142241001414141414004150
:100100002214080201510906324979413E7E11113B
:10011000117E7F494949363E414141227F4141227A
:100120001C7F494949417F090909013E4149497AF2
:100130007F0808087F00417F41002040413F017F48
:10014000081422417F404040407F020C027F7F0420
:1001500008107F3E4141413E7F090909063E415159
:10016000215E7F09192946464949493101017F012C
:10017000013F4040403F1F2040201F3F4038403F4C
:100180006314081463070870080761514945430068
:100190007F41410002040810200041417F00040219
:1001A0000102044040404040000102040020545439
:1001B00054787F48444438384444442038444448C0
:1001C0007F3854545418087E0901020C5252523E92
:1001D0007F0804047800447D40002040443D007FB7
:1001E0001028440000417F40007C041804787C08FB
:1001F00004047838444444387C1414140808141453
:10020000147C7C080404084854545420043F44409F
:10021000203C4040207C1C2040201C3C4030403C86
:1002200044281028440C5050503C4464544C440022
:100230000836410000007F00000041360800100829
:1002400008100800000000000500960100C8110118
:100250000A3A05010036A000C82911241FBECFEFBD
:10026000D8E0DEBFCDBF11E0A0E0B1E0E8EDF0E105
:1002700002C005900D92A436B107D9F721E0A4E69B
:10028000B1E001C01D92A03AB207E1F70E947B07DE
:100290000C946A080C940000EF92FF920F93CF9396
:1002A00080E091E00E94380670E060E080E091E03C
:1002B0000E944C036AE083E20E94740420E830E06C
:1002C0004FEF5FEF68E371E080E091E00E94A104EE
:1002D000CEE1E12C80EFF82E08E22EE14C2F6EE10A
:1002E00080E091E00E94AA05CF5FC33891F724E136
:1002F00040E560E480E091E0CF910F91FF90EF90B6
:100300000C941807FC01A281B3812C91348181E007
:1003100090E0AC0101C0440F3A95EAF7242B2C93EE
:10032000A081B1812C913481AC0101C0440F3A9578
:10033000EAF7242B2C932FEF33EC49E02150304087
:100340004040E1F700C00000A281B3814C912481BC
:10035000BC0102C0660F771F2A95E2F79B0120952A
:1003600024232C937FEF23EC39E071502040304060
:10037000E1F700C00000A281B3812C91348101C05B
:10038000880F3A95EAF7822B8C930895259A239A41
:100390008CB580648CBD8CB580618CBD8DB5816061
:1003A0008DBD0895CF93DF93FC01C081D181A881D9
:1003B000B9812C913C8181E090E0AC0101C0440FF7
:1003C0003A95EAF7242B2C93C281D381A881B98175
:1003D0002C913C81AC0101C0440F3A95EAF7242BE3
:1003E0002C93C481D581A881B9812C913C81AC0129
:1003F00001C0440F3A95EAF7242B2C93C081D18198
:10040000AA81BB812C913C81AC0101C0440F3A957B
:10041000EAF7242B2C93A281B3811296ED91FC91E3
:100420001397208114963C9101C0880F3A95EAF702
:10043000822B8083DF91CF910895CF93DF93FC01CE
:10044000C081D181AA81BB814C912C8181E090E057
:10045000EC0102C0CC0FDD1F2A95E2F79E0120952A
:1004600024232C93C481D581AA81BB812C913C810A
:1004700001C0880F3A95EAF7809582238C936EBD70
:100480000DB407FEFDCFA081B1811296ED91FC91D4
:100490001397808114969C9121E030E001C0220FD7
:1004A0009A95EAF7822B80838EB5DF91CF910895DC
:1004B000CF93DF93FC01C081D181AA81BB814C9194
:1004C0008C8121E030E0E90102C0CC0FDD1F8A956C
:1004D000E2F7CE01809584238C93C481D581AA81D3
:1004E000BB818C919C8101C0220F9A95EAF7282B41
:1004F0002C936EBD0DB407FEFDCFA081B181129685
:10050000ED91FC911397808114969C9121E030E04D
:1005100001C0220F9A95EAF7822B80838EB5DF9176
:10052000CF910895CF93DF93FC01C081D181AA813F
:10053000BB814C918C8121E030E0E90102C0CC0FFD
:10054000DD1F8A95E2F7CE01809584238C93C481C8
:10055000D581AA81BB818C919C8101C0220F9A9583
:10056000EAF7282B2C937EBD0DB407FEFDCF6EBDA0
:100570000DB407FEFDCFA081B1811296ED91FC91E3
:100580001397808114969C9121E030E001C0220FE6
:100590009A95EAF7822B80838EB5DF91CF910895EB
:1005A000EF92FF920F931F93CF93DF93D82FC92F12
:1005B000E62E142FF22E461770F1413A60F502171D
:1005C00050F1023840F56AE20E941D026E2D70E083
:1005D0008D2F9C2F0E949202612F70E08D2F9C2FF7
:1005E0000E9492026BE28D2F9C2F0E941D026F2DA4
:1005F00070E08D2F9C2F0E949202602F70E08D2F53
:100600009C2F0E94920280E0DF91CF911F910F9169
:10061000FF90EF90089581E0F7CFEF92FF920F9354
:100620001F93CF93DF93182F092FF62EE72EEA01A1
:100630006CE20E941D02219738F4DF91CF911F9147
:100640000F91FF90EF9008956F2D7E2D812F902FA9
:100650000E949202F0CFFF920F931F93CF93DF93EC
:10066000D82FC92FF22E132F042F242F462F0E948C
:10067000D00241E050E06F2D712F8D2F9C2FDF9124
:10068000CF911F910F91FF900C940D0369E20C9490
:100690001D0268E20C941D02FF920F931F93CF93EB
:1006A000DF93D82FC92FF62E172F01E820E040EA5C
:1006B00060E00E94D00242EC51E56F2D712F8D2F2A
:1006C0009C2FDF91CF911F910F91FF900C940D0300
:1006D0008F929F92AF92BF92CF92DF92EF92FF9252
:1006E0000F931F93CF93DF93EC01142F052FC901B4
:1006F000892B09F04BC0062E000C770B6052710954
:1007000085E0869F5001879FB00C112455E0D52EBF
:10071000DA948FEFD81217C080916401909165012F
:100720000696909365018093640180E0DF91CF91FC
:100730001F910F91FF90EF90DF90CF90BF90AF90FF
:100740009F908F900895F501ED0DF11DE859FF4F31
:10075000E49148E0C42EEE2EF12CCA948FEFC81617
:10076000B9F2C7010C2C02C0959587950A94E2F75F
:1007700080FFF3CF409166014C0D609164016D0DD7
:10078000212F302FCE010E942B03E7CF20383105D7
:1007900009F043C0062E000C770B6052710985E00A
:1007A000869F6001879FD00C112435E0B32EBA9448
:1007B0008FEFB81609F4B0CFF601EB0DF11DE85933
:1007C000FF4FE49128E0A22EEE2EF12CAA948FEF99
:1007D000A81669F3C7010A2C02C0959587950A945B
:1007E000E2F780FFF3CF409166019A2C990C490DF6
:1007F000609164016B0D212F302FCE010E942B03DD
:10080000409166014F5F490D609164016B0D212F8E
:10081000302FCE010E942B03D9CF2138310509F0AA
:1008200084CF062E000C770B6052710985E0869FFD
:100830005001879FB00C112495E0C92ECA948FEF08
:10084000C81206C080916401909165010B9669CF32
:10085000F501EC0DF11DE859FF4FE4918C2C880C4B
:1008600088E0982EEE2EF12C9A948FEF981631F3A3
:10087000C701092C02C0959587950A94E2F780FF7D
:10088000F3CF40916601D92CDD0C4D0D60916401D0
:10089000680D212F302FCE010E942B03409166015D
:1008A0004F5F4D0D60916401680D212F302FCE01F7
:1008B0000E942B03409166014D0D609164016F5FB2
:1008C000680D212F302FCE010E942B03409166012D
:1008D0004F5F4D0D609164016F5F680D212F302FC8
:1008E000CE010E942B03C0CF823A78F06338A0F487
:1008F00070E0709367016093660182E090E09093EE
:1009000065018093640180E0089570E07093670151
:100910006093660190E0F3CF81E00895823A68F039
:10092000461768F070E0709367016093660182E09B
:1009300090E0909365018093640180E0089581E0E8
:1009400008959F92AF92BF92CF92DF92EF92FF9263
:100950000F931F93CF93DF93D82EC92EB42EA52EBD
:10096000E901C90124E0969587952A95E1F738E0D9
:10097000F32EF80E82E8E82EEF188B018C2F8F7083
:10098000982EF801808181110CC0DF91CF911F91C9
:100990000F91FF90EF90DF90CF90BF90AF909F901E
:1009A0000895609166016F0D809164018B5F9E01D7
:1009B0004E2D890D0E948E048111E3CF9E014B2D97
:1009C0005A2DF80161918F018D2D9C2D0E94680395
:1009D000D8CF4F925F926F927F928F929F92AF92F9
:1009E000BF92CF92DF92EF92FF920F931F93CF931C
:1009F000DF93D82EC92ED62F542EC22F402E642F0F
:100A000070E0ED2FF0E0CB018E1B9F0B202F30E02C
:100A10004C2F50E08901041B150B7724739497FF2A
:100A200005C0CF01861B970B77247A9466246394C4
:100A300017FF05C08A01021B130B66246A94580134
:100A4000AA0CBB1C4C01880C991C0817190774F5DB
:100A50008501081B190B97014C2F6D2F8D2D9C2D97
:100A60000E942B03D51112C081E0DF91CF911F911D
:100A70000F91FF90EF90DF90CF90BF90AF909F903D
:100A80008F907F906F905F904F900895D70D17FDD6
:100A900003C0C60D081919090A0D1B1DDCCFC60DB0
:100AA000101611061CF0D70D0A0D1B1D0819190987
:100AB00097014C2F6D2F8D2D9C2D0E942B03C4115F
:100AC000EECFD2CFDF92EF92FF920F931F93CF938F
:100AD000DF937C01C62FD02ED62F641708F4D42FB5
:100AE000022F4D2F6C2FC7010E94D0028D2F8C1B1F
:100AF000990BAC016D2D712FC701DF91CF911F9123
:100B00000F91FF90EF90DF900C940D03DF92EF9226
:100B1000FF920F931F93CF93DF937C01C42FD02EAE
:100B2000D42F421708F4D22F0D2F2C2F462FC70198
:100B30000E94D0028D2F8C1B990BAC016D2D712F53
:100B4000C701DF91CF911F910F91FF90EF90DF9040
:100B50000C940D03BF92CF92DF92EF92FF920F930E
:100B60001F93CF93DF93B82EC92ED62EC42FD22F2A
:100B7000102F461710F4D42EC62F1D1718F48D2FE2
:100B8000D12F182F012F2D2F4C2F6D2D8B2D9C2DFC
:100B90000E94D0028C2F8D19990BBC016F5F7F4F83
:100BA000812F8D1B990B8C010F5F1F4F609FA00140
:100BB000619F500D709F500D1124B7018B2D9C2DFE
:100BC000DF91CF911F910F91FF90EF90DF90CF9029
:100BD000BF900C940D03815008F40895EFE9FFE0F5
:100BE0003197F1F700C00000F6CF9F92AF92BF920D
:100BF000CF92DF92EF92FF920F931F93CF93DF93E9
:100C0000082FF92EFB01EB0121961491115060F48D
:100C1000DF91CF911F910F91FF90EF90DF90CF90D8
:100C2000BF90AF909F900895FE0194903196E4900C
:100C30006E01F3E0CF0ED11CFE0132966491802F3D
:100C40009F2D0E941D025601C92DC15038F4E601A6
:100C5000C90DD11D8E2D0E94EB05D8CFF5016491F1
:100C6000802F9F2D0E945802FFEFAF1ABF0AEDCFD1
:100C7000CF93DF93EC010E94D2010E94C6018E81C6
:100C80009F810E94820168E472E0CE01DF91CF91E2
:100C90000C94F505BF92CF92DF92EF92FF920F93E3
:100CA0001F93CF93DF93D82FC92F162FF42EE22E48
:100CB000C42EC00EB62EB20E20E030EF4C2D6B2DA0
:100CC0000E942B03D12EDE1820E030EF4C2D6D2D2D
:100CD0008D2F9C2F0E942B03CF2CC01A20E030EFC9
:100CE0004C2D6B2D8D2F9C2F0E942B0320E030EF7D
:100CF0004C2D6D2D8D2F9C2F0E942B03CF2CCE0CB5
:100D0000D02ED10E20E030EF4C2D6D2D8D2F9C2F4D
:100D10000E942B03101B20E030EF4C2D612F8D2FF4
:100D20009C2F0E942B03FE1820E030EF4F2D6D2DDD
:100D30008D2F9C2F0E942B0320E030EF4F2D612F31
:100D40008D2F9C2FDF91CF911F910F91FF90EF90EE
:100D5000DF90CF90BF900C942B036F927F928F9275
:100D60009F92AF92BF92CF92DF92EF92FF920F933A
:100D70001F93CF93DF93B82EA92E962E872E742E15
:100D8000652EE901C901880F991F23E030E0790140
:100D9000E81AF90A8E0130E020E0562D8B2D9A2DAD
:100DA0000E944A06D12CC12CCC15DD057CF4DF91C4
:100DB000CF911F910F91FF90EF90DF90CF90BF9058
:100DC000AF909F908F907F906F9008952FEFC21AF1
:100DD000D20A1E141F040CF5219796012C1B3D0B03
:100DE000220F331F220F331FE20EF31E8AE0E80E9C
:100DF000F11C8E019601472D562D692D782D8B2DD6
:100E00009A2D0E944A062FEF80E792E02150804001
:100E10009040E1F700C00000C7CFC601880F991FBE
:100E2000880F991FE80EF91E96E0E90EF11CE1CF3C
:100E300030E050E070E00C94AD06CF93C82F8A30BC
:100E400019F48DE00E941D078091C00085FFFCCF42
:100E5000C093C60090E080E0CF9108958091C000DB
:100E600087FFFCCF8091C60090E008951092C500E6
:100E700087E68093C40086E08093C20088E1809377
:100E8000C1000895CF92DF92EF92FF920F931F93CC
:100E9000CF93DF937C018B01D0E0C0E0892B29F553
:100EA00080E013C080919A0190919B010E94FC0701
:100EB0009C01F80181938F0199272A3011F02D3080
:100EC00069F4F60110828C2F8F5FDF91CF911F9113
:100ED0000F91FF90EF90DF90CF90089560919C016B
:100EE00070919D010E943A0821966801CE15DF0598
:100EF000C9F6F801E7CF0E944C0180E895E20E9414
:100F000036078AE291E090939D0180939C018CE1E9
:100F100091E090939B0180939A01529A539AC2E375
:100F2000D8E014E068E671E082E390E00E944207B6
:100F30008091680170E060E08823C9F180E091E071
:100F40000E944C036AE08EE10E94740420E830E0C5
:100F50004FEF5FEF68E671E080E091E00E94A1044E
:100F60006CE471E088E691E00E94F307892BA1F020
:100F70008BB181278BB92FEF81EE94E02150804017
:100F80009040E1F700C00000E8E6F1E0DF012C2F1F
:100F90001D922A95E9F7C6CF61E571E088E691E0F8
:100FA0000E94F307892B39F38BB18D27E3CF80E0C3
:100FB00091E00E944C036AE08EE10E94740420E8F4
:100FC00030E04FEF5FEF66E571E080E091E00E9476
:100FD000A1048FEF91EEA4E081509040A040E1F792
:100FE00000C000009FCFFB01DC018D9101908019B2
:100FF0000110D9F3990B0895CF93DF93EC018B8106
:1010000080FF33C086FF0CC08F7B8B838E819F81D6
:1010100001969F838E838A8190E0DF91CF9108951E
:1010200082FF15C0E881F9819081292F092E000CDB
:10103000330B80629923C1F03196F983E8838E8166
:101040009F8101969F838E83C9019927E6CFEA8508
:10105000FB85CE0109959C0197FFF1CF8B812F3F36
:101060003F4F31F090E2892B8B838FEF9FEFD5CFED
:1010700090E1F9CF0F931F93CF93DF93182F092F90
:10108000EB018B8181FD09C01FEF0FEF812F902FA6
:10109000DF91CF911F910F91089582FF14C02E818F
:1010A0003F818C819D81281739073CF4E881F981C3
:1010B000CF0101969983888310838E819F81019649
:1010C0009F838E83E3CFE885F985812F0995892B4E
:0810D000A1F3DACFF894FFCF81
:1010D800170112010D0108012A002B000724002521
:1010E8000000240025000124002500020000000162
:1010F8000000000000002E070000000000020000B1
:1011080000001D0700000000496E64757374726961
:10111800616C205243552076312E30004C454430C6
:10112800004C454431004C697374656E696E672ED6
:041138002E2E000057
:00000001FF
